:020000040800F2
:10000000002800209D020008ED020008ED02000813
:10001000ED020008ED020008ED02000800000000FB
:10002000000000000000000000000000ED020008D9
:10003000ED02000800000000ED020008ED020008DB
:10004000ED020008ED020008ED020008ED020008D4
:10005000ED020008ED020008F10200081503000897
:10006000390300085D03000881030008ED02000861
:10007000ED020008ED020008ED020008ED020008A4
:10008000ED020008ED020008ED020008ED02000894
:10009000ED020008ED020008ED020008A5030008CB
:1000A000ED020008ED020008ED020008ED02000874
:1000B000ED020008ED020008ED020008ED02000864
:1000C000ED020008ED020008ED020008ED02000854
:1000D000ED0200088D110008A1110008B5110008FB
:1000E0004D040008ED02000800000000ED020008C9
:1000F000ED020008ED020008ED020008ED02000824
:10010000ED020008ED020008ED020008ED02000813
:10011000ED020008ED020008ED020008ED02000803
:10012000ED020008ED020008ED020008ED020008F3
:1001300010B5054C237833B9044B13B10448AFF321
:1001400000800123237010BD00000020000000008B
:100150001012000808B5034B1BB103490348AFF365
:10016000008008BD000000000400002010120008FC
:1001700080B500AF00220D490D4800F059FE012264
:100180000A490B4800F0E2FD00221021094800F066
:10019000F3FA01220549084800F0E6FC012210218B
:1001A000044800F0E9FA00BF80BD00BF1C00002039
:1001B00000380140000801400030014080B400AF29
:1001C0000A4B9B69094A43F004039361074B9B69FF
:1001D000064A43F008039361044B9B69034A43F0CA
:1001E0000103936100BFBD4680BC70470010024010
:1001F00080B58EB000AFFFF7E1FF4FF4E1337B62D3
:100200000023FB8520233B86204B7B6300237B85DB
:1002100000233B850023BB850C233B8407F120038F
:1002200019461B4800F0CAFC194800F0B7FE00232D
:10023000FB820223BB8200233B8200237B810023BD
:10024000FB8110233B810423BB8100237B824FF47D
:1002500040733B830023FB611023BB800423BB71ED
:100260000123FB713B1D19460A4800F009FA07F10A
:1002700008031946084800F0F3FA074800F07EFB2F
:1002800001221021034800F077FAFEE7710100080F
:100290000038014000080140003001400D4885460B
:1002A000AFF300800C480D490D4A002302E0D458FA
:1002B000C4500433C4188C42F9D30A4A0A4C0023B0
:1002C00001E013600432A242FBD300F07DFFFFF790
:1002D0008FFFFEE700280020000000200000002023
:1002E000481200080000002070000020FEE7000017
:1002F00080B500AF054B5B69044A43F001035361CD
:10030000034B1B68984700BF80BD00BF000401403D
:100310002000002080B500AF054B5B69044A43F024
:1003200002035361034B5B68984700BF80BD00BF69
:10033000000401402000002080B500AF054B5B6940
:10034000044A43F004035361034B9B68984700BF82
:1003500080BD00BF000401402000002080B500AF38
:10036000054B5B69044A43F008035361034BDB68A8
:10037000984700BF80BD00BF00040140200000205E
:1003800080B500AF054B5B69044A43F0100353612D
:10039000034B1B69984700BF80BD00BF00040140AC
:1003A0002000002080B500AF264B5B6903F02003DE
:1003B000002B08D0234B5B69224A43F02003536192
:1003C000214B5B6998471F4B5B6903F04003002B8F
:1003D00008D01C4B5B691B4A43F0400353611A4B26
:1003E0009B699847174B5B6903F08003002B08D08B
:1003F000144B5B69134A43F080035361124BDB6972
:100400009847104B5B6903F48073002B08D00D4BA9
:100410005B690C4A43F4807353610B4B1B6A98472A
:10042000084B5B6903F40073002B08D0054B5B6934
:10043000044A43F400735361034B5B6A984700BF5F
:1004400080BD00BF000401402000002080B500AF47
:100450002D4B5B6903F48063002B08D02A4B5B694A
:10046000294A43F480635361284B9B6A9847264B83
:100470005B6903F40063002B08D0234B5B69224ABD
:1004800043F400635361214BDB6A98471E4B5B6961
:1004900003F48053002B08D01B4B5B691A4A43F4CA
:1004A00080535361194B1B6B9847174B5B6903F4DF
:1004B0000053002B08D0144B5B69134A43F40053DC
:1004C0005361124B5B6B98470F4B5B6903F480439E
:1004D000002B08D00C4B5B690B4A43F480435361FB
:1004E0000A4B9B6B9847084B5B6903F40043002B56
:1004F00008D0054B5B69044A43F400435361034B46
:10050000DB6B984700BF80BD000401402000002045
:1005100080B483B000AF0346FB80FB88B3F5004F87
:1005200000F0A580B3F5004F00F3A380B3F5804F32
:1005300000F09B80B3F5804F00F39B80B3F5005F24
:1005400000F09180B3F5005F00F39380B3F5805F16
:1005500000F08780B3F5805F00F38B80B3F5006F08
:100560007DD0B3F5006F00F38480B3F5806F74D055
:10057000B3F5806F7DDCB3F5007F6CD0B3F5007F01
:1005800077DCB3F5807F64D0B3F5807F71DC802B9E
:100590005DD0802B6DDC202B48DC002B69DD013B1E
:1005A0001F2B66D801A252F823F000BF33060008C3
:1005B00037060008730600083B06000873060008AB
:1005C00073060008730600083F060008730600085B
:1005D0007306000873060008730600087306000817
:1005E0007306000873060008430600087306000837
:1005F00073060008730600087306000873060008F7
:1006000073060008730600087306000873060008E6
:1006100073060008730600087306000873060008D6
:10062000730600087306000847060008402B0CD02C
:100630001FE000231EE004231CE008231AE00C2323
:1006400018E0102316E0142314E0182312E01C23F2
:1006500010E000230EE004230CE008230AE00C2342
:1006600008E0102306E0142304E0182302E01C2312
:1006700000E0002318460C37BD4680BC704700BF21
:1006800080B584B000AF786039600023FB60002340
:10069000BB603B681B88FF2B02D87B68FB6002E0D5
:1006A0007B680433FB603B681B881846FFF730FF0C
:1006B00003461A460F239340DA43FB681B681A402F
:1006C000FB681A603B689B78052B0BD03B689B78D6
:1006D000042B07D03B689B78072B03D03B689B78A3
:1006E000062B0AD13B689B78043B9B003A68D27882
:1006F000134303F00F03BB602BE03B689B78012B97
:1007000003D03B689B78002B06D13B689B789B000D
:1007100003F00F03BB601CE03B689B78082B02D101
:100720000423BB6015E00823BB603B689B78022B69
:1007300007D17B68DB683A6812881A437B68DA6005
:1007400007E07B68DB683A681288D2431A407B680E
:10075000DA603B681B881846FFF7DAFE03461A4644
:10076000BB6803FA02F2FB681B681A43FB681A6055
:1007700000BF1037BD4680BD80B483B000AF786045
:100780000B467B8013467B707B78002B03D07A88E6
:100790007B681A6102E07A887B685A6100BF0C3777
:1007A000BD4680BC7047000080B400AF0B4B5B6857
:1007B0009B0803F00303022B0AD0022B0AD8002B5C
:1007C00002D0012B02D005E0054B03E0054B01E010
:1007D000044BFFE71846BD4680BC7047001002403E
:1007E00000127A000024F40080B500AFFFF7DCFFB0
:1007F0000246054B5B681B0903F00F030349CB5C02
:1008000022FA03F3184680BD00100240301200089F
:1008100080B500AFFFF7E8FF0246054B5B681B0A97
:1008200003F007030349CB5C22FA03F3184680BDAB
:10083000001002402812000880B500AFFFF7D4FF77
:100840000246054B5B68DB0A03F007030349CB5CF8
:1008500022FA03F3184680BD001002402812000857
:1008600080B485B000AF786039600023FB8100233D
:10087000BB817B683C4A934209D13C4A3B68136088
:100880003B4B9B693A4A43F4805393610CE07B688D
:10089000384A934208D1354A3B685360344BDB6990
:1008A000334A43F48043D361FB8943F04003FB8127
:1008B0003B689A88FB891343FB813B685A88FB8914
:1008C0001343FB813B68DA88FB891343FB813B6858
:1008D0001A89FB891343FB813B689A89FB8913437F
:1008E000FB813B68DA89FB891343FB813B681B8AE8
:1008F000042B05D13B681A8ABB891343BB8104E0F2
:100900003B681A8AFB891343FB813B681A88FB8981
:100910001343FB813B685B89002B19D03B685A89E4
:10092000BB891343BB817B680F4A934206D1124BAC
:100930001B68114A43F00803136009E07B680D4A05
:10094000934205D10C4B1B680B4A43F01003136014
:10095000FA897B681A60BA897B685A6000BF1437CD
:10096000BD4680BC704700BF003001405C000020E5
:10097000001002400038004004E100E080B584B07F
:1009800000AF78607B68734A934269D1724B1B68F1
:100990009B88042B34D1704B1B681B8A042B0CD111
:1009A0001023BB810623BB730123FB7307F10C03E8
:1009B00019466A48FFF764FE00BF2023BB81062367
:1009C000BB730123FB7307F10C0319466348FFF760
:1009D00057FE4023BB810123BB7307F10C0319466B
:1009E0005E48FFF74DFE8023BB810623BB730123C6
:1009F000FB7307F10C0319465848FFF741FEA4E0CA
:100A0000554B1B681B8A002B09D11023BB81012386
:100A1000BB7307F10C0319465048FFF731FE202342
:100A2000BB810123BB7307F10C0319464B48FFF749
:100A300027FE4023BB810623BB730123FB7307F111
:100A40000C0319464548FFF71BFE8023BB81012399
:100A5000BB7307F10C0319464048FFF711FE74E021
:100A60007B683F4A934270D13B4B5B689B88042B69
:100A700038D1394B5B681B8A042B0DD14FF480535E
:100A8000BB810623BB730123FB7307F10C031946DB
:100A90003448FFF7F5FD00BF4FF40053BB81062338
:100AA000BB730123FB7307F10C0319462D48FFF7B5
:100AB000E7FD4FF48043BB810123BB7307F10C03B7
:100AC00019462848FFF7DCFD4FF40043BB8106239D
:100AD000BB730123FB7307F10C0319462148FFF791
:100AE000CFFD32E01C4B5B681B8A002B0AD14FF410
:100AF0008053BB810123BB7307F10C0319461948CE
:100B0000FFF7BEFD4FF40053BB810123BB7307F118
:100B10000C0319461348FFF7B3FD4FF48043BB8124
:100B20000623BB730123FB7307F10C0319460D4821
:100B3000FFF7A6FD4FF40043BB810123BB7307F110
:100B40000C0319460748FFF79BFD00BF1037BD4651
:100B500080BD00BF003001405C0000200008014063
:100B600000380040000C014080B485B000AFF86050
:100B7000B9601346FB71FB79012B06D100BFFB68FE
:100B80009B6803F00203002BF9D0BB681B881A4650
:100B9000FB68DA60FB79012B06D100BFFB689B681C
:100BA00003F00103002BF9D0FB68DB689AB2BB6845
:100BB0001A8000BF1437BD4680BC704780B584B032
:100BC00000AF786039607B68594A934209D1594B2C
:100BD0009B69584A43F480439361574A3B681360CA
:100BE0001AE07B68554A934209D1524BDB69514A5E
:100BF00043F40033D361504A3B6853600CE07B6898
:100C00004F4A934208D14B4BDB694A4A43F4802355
:100C1000D361494A3B6893607B68DB6843F40052C8
:100C20007B68DA607B68DB683A6812881A437B6805
:100C3000DA607B68DB683A6812891A437B68DA609D
:100C40007B68DB683A6852891A437B68DA607B68A4
:100C50001B693A6892891A437B681A617B685B69F1
:100C60003A68D2891A437B685A617B68304A93425A
:100C700003D1FFF7E1FDF86002E0FFF7C9FDF8607E
:100C80003B685B681B01FA68B2FBF3F31901FA6871
:100C900013469B0013449A001A443B685B689B0010
:100CA000B2FBF3F23B685B681B01F868B0FBF3F33F
:100CB000642000FB03F3D31A1B01224AA2FB032387
:100CC0005B0903F00F030B43BB607B68BA689A6053
:100CD0003B681B8A002B26D07B68DB683A68128A47
:100CE0001A437B68DA607B68114A934206D1164B3F
:100CF0001B68154A43F02003136014E07B680F4A19
:100D0000934206D1104B1B680F4A43F04003136017
:100D100009E07B680A4A934205D10B4B1B680A4ADB
:100D200043F08003136000BF1037BD4680BD00BF95
:100D300000380140001002406400002000440040E0
:100D4000004800401F85EB5104E100E080B485B00D
:100D500000AFF860B9601346FB71FB79012B06D137
:100D600000BFFB681B6803F08003002BF9D0FB6811
:100D70002B4A934217D12B4B1B681B89002B05D1A3
:100D8000BB681B88DAB2FB685A6043E0254B1B68DE
:100D90001B89B3F5805F3DD1BB681B88C3F3080294
:100DA000FB685A6036E0FB681F4A934217D11D4B1F
:100DB0005B681B89002B05D1BB681B88DAB2FB6816
:100DC0005A6027E0174B5B681B89B3F5805F21D120
:100DD000BB681B88C3F30802FB685A601AE0FB6813
:100DE000124A934216D10F4B9B681B89002B05D1E9
:100DF000BB681B88DAB2FB685A600BE0094B9B6842
:100E00001B89B3F5805F05D1BB681B88C3F308025B
:100E1000FB685A6000BF1437BD4680BC704700BFF6
:100E200000380140640000200044004000480040B9
:100E300080B485B000AFF860B9601346FB71FB79F0
:100E4000012B06D100BFFB681B6803F02003002BB9
:100E5000F9D0FB684D4A93422ED14D4B1B681B893C
:100E6000B3F5805F12D14A4B1B685B89002B05D11B
:100E7000FB685B689AB2BB681A8082E0FB685B68BB
:100E80009BB2DBB29AB2BB681A807AE0404B1B6817
:100E90005B89002B07D1FB685B689BB2DBB29AB21F
:100EA000BB681A806DE0FB685B689BB203F07F0350
:100EB0009AB2BB681A8064E0FB68364A93422ED12E
:100EC000334B5B681B89B3F5805F12D1304B5B6895
:100ED0005B89002B05D1FB685B689AB2BB681A80FE
:100EE0004FE0FB685B689BB2DBB29AB2BB681A80CA
:100EF00047E0274B5B685B89002B07D1FB685B6889
:100F00009BB2DBB29AB2BB681A803AE0FB685B68BE
:100F10009BB203F07F039AB2BB681A8031E0FB6892
:100F20001D4A93422DD11A4B9B681B89B3F5805FF4
:100F300012D1174B9B685B89002B05D1FB685B685E
:100F40009AB2BB681A801CE0FB685B689BB2DBB29C
:100F50009AB2BB681A8014E00D4B9B685B89002B2A
:100F600007D1FB685B689BB2DBB29AB2BB681A80A0
:100F700007E0FB685B689BB203F07F039AB2BB6833
:100F80001A8000BF1437BD4680BC7047003801404E
:100F900064000020004400400048004080B584B058
:100FA00000AF78607B68734A934249D14FF4007375
:100FB000BB810623BB730123FB7307F10C031946A6
:100FC0006D48FFF75DFB4FF48063BB810123BB736A
:100FD00007F10C0319466848FFF752FB674B1B6883
:100FE000DB89B3F5007F05D0644B1B68DB89B3F563
:100FF000407F0AD14FF40063BB810123BB7307F12B
:101000000C0319465C48FFF73BFB5C4B1B68DB8914
:10101000B3F5807F06D0594B1B68DB89B3F5407F61
:1010200040F0A3804FF48053BB810623BB730123A0
:10103000FB7307F10C0319464F48FFF721FB94E0BF
:101040007B684F4A934244D10423BB810623BB7380
:101050000123FB7307F10C0319464748FFF710FB08
:101060000823BB810123BB7307F10C0319464248D7
:10107000FFF706FB414B5B68DB89B3F5007F05D0CA
:101080003E4B5B68DB89B3F5407F09D10123BB810F
:101090000123BB7307F10C0319463748FFF7F0FA39
:1010A000364B5B68DB89B3F5807F05D0334B5B68DB
:1010B000DB89B3F5407F58D10223BB810623BB7384
:1010C0000123FB7307F10C0319462B48FFF7D8FAED
:1010D0004BE07B682B4A934247D14FF48063BB813E
:1010E0000623BB730123FB7307F10C031946264843
:1010F000FFF7C6FA4FF40063BB810123BB7307F10E
:101100000C0319462048FFF7BBFA1C4B9B68DB8990
:10111000B3F5007F05D0194B9B68DB89B3F5407FA1
:101120000AD14FF40053BB810123BB7307F10C03B9
:1011300019461548FFF7A4FA104B9B68DB89B3F5F5
:10114000807F05D00D4B9B68DB89B3F5407F0CD1C8
:101150004FF48043BB810623BB730123FB7307F16C
:101160000C0319460848FFF78BFA00BF1037BD463D
:1011700080BD00BF0038014000080140640000202D
:101180000044004000480040000C014080B500AF22
:10119000024B1B685B69984700BF80BD640000205C
:1011A00080B500AF024B5B685B69984700BF80BDAC
:1011B0006400002080B500AF024B9B685B699847D4
:1011C00000BF80BD6400002070B500260C4D0D4CA2
:1011D000641BA410A64209D100F01AF800260A4D9B
:1011E0000A4C641BA410A64205D170BD55F8043BFF
:1011F00098470136EEE755F8043B98470136F2E789
:101200004012000840120008401200084412000872
:10121000F8B500BFF8BC08BC9E467047F8B500BFE3
:08122000F8BC08BC9E467047B3
:1012280000000000010203040000000000000000AC
:08123800010203040607080986
:04124000550100084C
:04124400310100086C
:040000050800029D50
:00000001FF
