S0160000537769746368696E675F4C4544532E73726563D7
S11300000C942A000C943C000C943C000C943C008E
S11300100C943C000C943C000C943C000C943C006C
S11300200C943C000C943C000C943C000C943C005C
S11300300C943C000C943C000C943C000C943C004C
S11300400C943C000C943C000C943C000C943C003C
S11300500C943C0011241FBECFE5D8E0DEBFCDBF19
S113006020E0A0E6B0E001C01D92A236B207E1F79D
S11300700E943E000C9481000C9400008FEF8ABB18
S113008084B38E7F84BB85B3816085BB989B20C07D
S113009022C01092610018C03BB381E090E002C01E
S11300A0880F991F2A95E2F7832B8BBB2FE38DE0F2
S11300B093E0215080409040E1F700C0000080911F
S11300C061008F5F8093610020916100283020F3EC
S11300D0989BDFCFDBCF87E0809361002BB381E077
S11300E090E00090610002C0880F991F0A94E2F723
S11300F0809582238BBB8091610081508093610045
S1090100EDCFF894FFCFDF
S9030000FC
