S01100004C45445F545241494E2E7372656361
S11300000C942A000C943C000C943C000C943C008E
S11300100C943C000C943C000C943C000C943C006C
S11300200C943C000C943C000C943C000C943C005C
S11300300C943C000C943C000C943C000C943C004C
S11300400C943C000C943C000C943C000C943C003C
S11300500C943C0011241FBECFE5D8E0DEBFCDBF19
S113006020E0A0E6B0E001C01D92A236B207E1F79D
S11300700E943E000C9493000C9400008FEF8ABB06
S113008010926100109260001CC03BB381E090E0CC
S113009002C0880F991F2A95E2F7832B8BBB2FE3AD
S11300A08DE093E0215080409040E1F700C00000D3
S11300B0809160009091610001969093610080931B
S11300C06000209160003091610028303105ECF22D
S11300D087E090E090936100809360001DC02BB393
S11300E081E090E002C0880F991F4A95E2F780955D
S11300F082238BBB2FE38DE093E02150804090401E
S1130100E1F700C0000080916000909161000197C8
S11301109093610080936000409160005091610071
S10D01205523ECF6ADCFF894FFCFA1
S9030000FC
