:020000040800F2
:10000000002800207D020008CD020008CD02000873
:10001000CD020008CD020008CD020008000000005B
:10002000000000000000000000000000CD020008F9
:10003000CD02000800000000CD020008CD0200083B
:10004000CD020008CD020008CD020008CD02000854
:10005000CD020008CD020008D1020008F502000818
:10006000190300083D03000861030008CD020008E1
:10007000CD020008CD020008CD020008CD02000824
:10008000CD020008CD020008CD020008CD02000814
:10009000CD020008CD020008CD020008850300084B
:1000A000CD020008CD020008CD020008CD020008F4
:1000B000CD020008CD020008CD020008CD020008E4
:1000C000CD020008CD020008CD020008F50B0008A3
:1000D000510C000811110008251100083911000801
:1000E0002D040008CD02000800000000CD02000829
:1000F000CD020008CD020008CD020008CD020008A4
:10010000CD020008CD020008CD020008CD02000893
:10011000CD020008CD020008CD020008CD02000883
:10012000CD020008CD020008CD020008CD02000873
:1001300010B5054C237833B9044B13B10448AFF321
:1001400000800123237010BD00000020000000008B
:100150009411000808B5034B1BB103490348AFF3E2
:10016000008008BD00000000040000209411000879
:1001700080B58EB000AF00F03FF84FF4E1333B6242
:1001800000237B852023BB85174B3B630023FB8427
:100190000023BB8400233B850C23BB8307F11C0396
:1001A0001946124800F082FD104800F0B9FE1023F5
:1001B0007B820123FB810223BB8100233B8100233F
:1001C0007B810023FB800023BB804023BB82002374
:1001D0003B82074BBB613B1D1946064800F018FBEC
:1001E000044800F0C7FBFEE72D020008003801407C
:1001F000390200080030014080B400AF0A4B9B690F
:10020000094A43F004039361074B9B69064A43F094
:1002100008039361044B9B69034A43F00103936114
:1002200000BFBD4680BC70470010024080B400AFE4
:1002300000BFBD4680BC704780B582B000AF38714A
:100240003B7903F00203DBB2002B0CD0084B0F22EA
:100250001A8000220649074800F0A2FC0122044946
:10026000054800F0EBFD00BF0837BD4680BD00BF6C
:100270001C00002000300140003801400D48854638
:10028000AFF300800C480D490D4A002302E0D4581A
:10029000C4500433C4188C42F9D30A4A0A4C0023D0
:1002A00001E013600432A242FBD300F04FFFFFF7DE
:1002B0005FFFFEE700280020000000200000002073
:1002C000CC11000800000020A0000020FEE7000084
:1002D00080B500AF054B5B69044A43F001035361ED
:1002E000034B1B68984700BF80BD00BF000401405E
:1002F0002000002080B500AF054B5B69044A43F045
:1003000002035361034B5B68984700BF80BD00BF89
:10031000000401402000002080B500AF054B5B6960
:10032000044A43F004035361034B9B68984700BFA2
:1003300080BD00BF000401402000002080B500AF58
:10034000054B5B69044A43F008035361034BDB68C8
:10035000984700BF80BD00BF00040140200000207E
:1003600080B500AF054B5B69044A43F0100353614D
:10037000034B1B69984700BF80BD00BF00040140CC
:100380002000002080B500AF264B5B6903F02003FE
:10039000002B08D0234B5B69224A43F020035361B2
:1003A000214B5B6998471F4B5B6903F04003002BAF
:1003B00008D01C4B5B691B4A43F0400353611A4B46
:1003C0009B699847174B5B6903F08003002B08D0AB
:1003D000144B5B69134A43F080035361124BDB6992
:1003E0009847104B5B6903F48073002B08D00D4BCA
:1003F0005B690C4A43F4807353610B4B1B6A98474B
:10040000084B5B6903F40073002B08D0054B5B6954
:10041000044A43F400735361034B5B6A984700BF7F
:1004200080BD00BF000401402000002080B500AF67
:100430002D4B5B6903F48063002B08D02A4B5B696A
:10044000294A43F480635361284B9B6A9847264BA3
:100450005B6903F40063002B08D0234B5B69224ADD
:1004600043F400635361214BDB6A98471E4B5B6981
:1004700003F48053002B08D01B4B5B691A4A43F4EA
:1004800080535361194B1B6B9847174B5B6903F4FF
:100490000053002B08D0144B5B69134A43F40053FC
:1004A0005361124B5B6B98470F4B5B6903F48043BE
:1004B000002B08D00C4B5B690B4A43F4804353611B
:1004C0000A4B9B6B9847084B5B6903F40043002B76
:1004D00008D0054B5B69044A43F400435361034B66
:1004E000DB6B984700BF80BD000401402000002066
:1004F00080B483B000AF0346FB80FB88B3F5004FA8
:1005000000F0A580B3F5004F00F3A380B3F5804F52
:1005100000F09B80B3F5804F00F39B80B3F5005F44
:1005200000F09180B3F5005F00F39380B3F5805F36
:1005300000F08780B3F5805F00F38B80B3F5006F28
:100540007DD0B3F5006F00F38480B3F5806F74D075
:10055000B3F5806F7DDCB3F5007F6CD0B3F5007F21
:1005600077DCB3F5807F64D0B3F5807F71DC802BBE
:100570005DD0802B6DDC202B48DC002B69DD013B3E
:100580001F2B66D801A252F823F000BF1306000803
:1005900017060008530600081B060008530600084B
:1005A00053060008530600081F06000853060008FB
:1005B00053060008530600085306000853060008B7
:1005C00053060008530600082306000853060008D7
:1005D0005306000853060008530600085306000897
:1005E0005306000853060008530600085306000887
:1005F0005306000853060008530600085306000877
:10060000530600085306000827060008402B0CD0AC
:100610001FE000231EE004231CE008231AE00C2343
:1006200018E0102316E0142314E0182312E01C2312
:1006300010E000230EE004230CE008230AE00C2362
:1006400008E0102306E0142304E0182302E01C2332
:1006500000E0002318460C37BD4680BC704700BF41
:1006600080B584B000AF786039600023FB60002360
:10067000BB603B681B88FF2B02D87B68FB6002E0F5
:100680007B680433FB603B681B881846FFF730FF2C
:1006900003461A460F239340DA43FB681B681A404F
:1006A000FB681A603B689B78052B0BD03B689B78F6
:1006B000042B07D03B689B78072B03D03B689B78C3
:1006C000062B0AD13B689B78043B9B003A68D278A2
:1006D000134303F00F03BB602BE03B689B78012BB7
:1006E00003D03B689B78002B06D13B689B789B002E
:1006F00003F00F03BB601CE03B689B78082B02D122
:100700000423BB6015E00823BB603B689B78022B89
:1007100007D17B68DB683A6812881A437B68DA6025
:1007200007E07B68DB683A681288D2431A407B682E
:10073000DA603B681B881846FFF7DAFE03461A4664
:10074000BB6803FA02F2FB681B681A43FB681A6075
:1007500000BF1037BD4680BD80B400AF0B4B5B6857
:100760009B0803F00303022B0AD0022B0AD8002BAC
:1007700002D0012B02D005E0054B03E0054B01E060
:10078000044BFFE71846BD4680BC7047001002408E
:1007900000127A000024F40080B500AFFFF7DCFF00
:1007A0000246054B5B681B0903F00F030349CB5C52
:1007B00022FA03F3184680BD00100240B41100086D
:1007C00080B500AFFFF7E8FF0246054B5B681B0AE8
:1007D00003F007030349CB5C22FA03F3184680BDFC
:1007E00000100240AC11000880B500AFFFF7D4FF45
:1007F0000246054B5B68DB0A03F007030349CB5C49
:1008000022FA03F3184680BD00100240AC11000824
:10081000B0B485B000AF786039600023FB8100235D
:10082000BB817B684C4A934213D14C4A3B681446C7
:100830001D460FCD0FC495E8030084E80300484B24
:10084000464A1A60474B9B69464A43F4805393617A
:1008500016E07B68444A934212D1444A3B681446EE
:100860001D460FCD0FC495E8030084E803003C4B00
:100870003E4A5A603B4BDB693A4A43F48043D361BA
:10088000FB8943F04003FB813B681A88FB891343D3
:10089000FB813B685A88FB891343FB813B689A883C
:1008A000FB891343FB813B68DA88FB891343FB8197
:1008B0003B681A89FB891343FB813B685A89FB8992
:1008C0001343FB813B689B89042B05D13B689A89C4
:1008D000BB891343BB8110E03B689B894FF6FB72D9
:1008E000934205D13B689A89BB891340BB8104E0E0
:1008F0003B689A89FB891343FB813B68DA89FB8952
:100900001343FB813B681B8A002B19D03B681A8A72
:10091000BB891343BB817B680F4A934206D1144BBA
:100920001B68134A43F00803136009E07B680E4A12
:10093000934205D10E4B1B680D4A43F01003136020
:10094000FA897B681A60BA897B685A6000BF1437DD
:10095000BD46B0BC704700BF0030014064000020BD
:100960005C00002000100240003800407C000020A5
:1009700004E100E080B584B000AF78607B68834A12
:10098000934278D1824B1B681B88042B43D1804B48
:100990001B689B89042B0ED04FF6FB72934217D134
:1009A0001023BB810123BB7307F10C03194679485F
:1009B000FFF756FE0CE01023BB810623BB73012317
:1009C000FB7307F10C0319467248FFF749FE00BF9D
:1009D0002023BB810623BB730123FB7307F10C03A8
:1009E00019466C48FFF73CFE4023BB810123BB73D3
:1009F00007F10C0319466748FFF732FE8023BB81DD
:100A00000623BB730123FB7307F10C0319466148EE
:100A1000FFF726FEB5E05E4B1B689B89002B09D1D2
:100A20001023BB810123BB7307F10C0319465948FE
:100A3000FFF716FE2023BB810123BB7307F10C03D4
:100A400019465448FFF70CFE4023BB810623BB73B5
:100A50000123FB7307F10C0319464E48FFF700FE14
:100A60008023BB810123BB7307F10C03194649485E
:100A7000FFF7F6FD85E07B68474A934240F08180AE
:100A8000434B5B681B88042B48D1414B5B689B89B7
:100A9000042B0FD04FF6FB72934219D14FF48053C1
:100AA000BB810123BB7307F10C0319463B48FFF7D9
:100AB000D7FD0DE04FF48053BB810623BB730123A8
:100AC000FB7307F10C0319463448FFF7C9FD00BF5B
:100AD0004FF40053BB810623BB730123FB7307F163
:100AE0000C0319462D48FFF7BBFD4FF48043BB8133
:100AF0000123BB7307F10C0319462848FFF7B0FD2B
:100B00004FF40043BB810623BB730123FB7307F142
:100B10000C0319462148FFF7A3FD32E01C4B5B682C
:100B20009B89002B0AD14FF48053BB810123BB73F7
:100B300007F10C0319461948FFF792FD4FF40053D3
:100B4000BB810123BB7307F10C0319461348FFF760
:100B500087FD4FF48043BB810623BB730123FB73E6
:100B600007F10C0319460D48FFF77AFD4FF40043D7
:100B7000BB810123BB7307F10C0319460748FFF73C
:100B80006FFD00BF1037BD4680BD00BF0030014083
:100B90005C0000200008014000380040000C0140CB
:100BA00080B485B000AFF860B9601346FB71FB7983
:100BB000012B06D100BFFB689B6803F00203002BEA
:100BC000F9D0BB681B881A46FB68DA60FB79012BF9
:100BD00006D100BFFB689B6803F00103002BF9D02E
:100BE000FB68DB689AB2BB681A8000BF1437BD4649
:100BF00080BC704780B582B000AF134B9B685B0828
:100C000003F00103DAB23B7962F300033B710E4B50
:100C10009B6803F00103DAB23B7962F341033B7155
:100C2000094B9B681B0903F00103DAB23B7962F3BD
:100C300082033B71054B1B685B693879984700BF9D
:100C40000837BD4680BD00BF003001405C00002079
:100C500080B582B000AF134B9B685B0803F00103C3
:100C6000DAB23B7962F300033B710E4B9B6803F0F1
:100C70000103DAB23B7962F341033B71094B9B6894
:100C80001B0903F00103DAB23B7962F382033B7183
:100C9000054B5B685B693879984700BF0837BD46EC
:100CA00080BD00BF003800405C00002080B584B0EB
:100CB00000AF786039607B68594A934209D1594B3B
:100CC0009B69584A43F480439361574A3B681360D9
:100CD0001AE07B68554A934209D1524BDB69514A6D
:100CE00043F40033D361504A3B6853600CE07B68A7
:100CF0004F4A934208D14B4BDB694A4A43F4802365
:100D0000D361494A3B6893607B68DB6843F40052D7
:100D10007B68DA607B68DB683A6812881A437B6814
:100D2000DA607B68DB683A6812891A437B68DA60AC
:100D30007B68DB683A6852891A437B68DA607B68B3
:100D40001B693A6892891A437B681A617B685B6900
:100D50003A68D2891A437B685A617B68304A934269
:100D600003D1FFF741FDF86002E0FFF729FDF860CD
:100D70003B685B681B01FA68B2FBF3F31901FA6880
:100D800013469B0013449A001A443B685B689B001F
:100D9000B2FBF3F23B685B681B01F868B0FBF3F34E
:100DA000642000FB03F3D31A1B01224AA2FB032396
:100DB0005B0903F00F030B43BB607B68BA689A6062
:100DC0003B681B8A002B26D07B68DB683A68128A56
:100DD0001A437B68DA607B68114A934206D1164B4E
:100DE0001B68154A43F02003136014E07B680F4A28
:100DF000934206D1104B1B680F4A43F04003136027
:100E000009E07B680A4A934205D10B4B1B680A4AEA
:100E100043F08003136000BF1037BD4680BD00BFA4
:100E200000380140001002409400002000440040BF
:100E3000004800401F85EB5104E100E080B485B01C
:100E400000AFF860B9601346FB71FB79012B06D146
:100E500000BFFB681B6803F08003002BF9D0FB6820
:100E60002B4A934217D12B4B1B681B89002B05D1B2
:100E7000BB681B88DAB2FB685A6043E0254B1B68ED
:100E80001B89B3F5805F3DD1BB681B88C3F30802A3
:100E9000FB685A6036E0FB681F4A934217D11D4B2E
:100EA0005B681B89002B05D1BB681B88DAB2FB6825
:100EB0005A6027E0174B5B681B89B3F5805F21D12F
:100EC000BB681B88C3F30802FB685A601AE0FB6822
:100ED000124A934216D10F4B9B681B89002B05D1F8
:100EE000BB681B88DAB2FB685A600BE0094B9B6851
:100EF0001B89B3F5805F05D1BB681B88C3F308026B
:100F0000FB685A6000BF1437BD4680BC704700BF05
:100F10000038014094000020004400400048004098
:100F200080B584B000AF78607B68734A934249D142
:100F30004FF40073BB810623BB730123FB7307F1DE
:100F40000C0319466D48FFF78BFB4FF48063BB81A0
:100F50000123BB7307F10C0319466848FFF780FBB8
:100F6000674B1B68DB89B3F5007F05D0644B1B68BA
:100F7000DB89B3F5407F0AD14FF40063BB810123C5
:100F8000BB7307F10C0319465C48FFF769FB5C4B28
:100F90001B68DB89B3F5807F06D0594B1B68DB8962
:100FA000B3F5407F40F0A3804FF48053BB8106230C
:100FB000BB730123FB7307F10C0319464F48FFF77E
:100FC0004FFB94E07B684F4A934244D10423BB819A
:100FD0000623BB730123FB7307F10C031946474833
:100FE000FFF73EFB0823BB810123BB7307F10C0312
:100FF00019464248FFF734FB414B5B68DB89B3F588
:10100000007F05D03E4B5B68DB89B3F5407F09D19B
:101010000123BB810123BB7307F10C031946374839
:10102000FFF71EFB364B5B68DB89B3F5807F05D08D
:10103000334B5B68DB89B3F5407F58D10223BB811A
:101040000623BB730123FB7307F10C0319462B48DE
:10105000FFF706FB4BE07B682B4A934247D14FF4E6
:101060008063BB810623BB730123FB7307F10C0371
:1010700019462648FFF7F4FA4FF40063BB810123B9
:10108000BB7307F10C0319462048FFF7E9FA1C4B24
:101090009B68DB89B3F5007F05D0194B9B68DB8922
:1010A000B3F5407F0AD14FF40053BB810123BB73DA
:1010B00007F10C0319461548FFF7D2FA104B9B684D
:1010C000DB89B3F5807F05D00D4B9B68DB89B3F5D9
:1010D000407F0CD14FF48043BB810623BB730123B7
:1010E000FB7307F10C0319460848FFF7B9FA00BF74
:1010F0001037BD4680BD00BF0038014000080140E8
:10110000940000200044004000480040000C0140D2
:1011100080B500AF024B1B685B69984700BF80BD7C
:101120009400002080B500AF024B5B685B69984774
:1011300000BF80BD9400002080B500AF024B9B68CB
:101140005B69984700BF80BD9400002070B5002601
:101150000C4D0D4C641BA410A64209D100F01AF8E6
:1011600000260A4D0A4C641BA410A64205D170BD8E
:1011700055F8043B98470136EEE755F8043B98478D
:101180000136F2E7C4110008C4110008C4110008B8
:10119000C8110008F8B500BFF8BC08BC9E467047EF
:0C11A000F8B500BFF8BC08BC9E467047C4
:1011AC000000000001020304000000000000000029
:0811BC00010203040607080903
:0411C40055010008C9
:0411C80031010008E9
:040000050800027D70
:00000001FF
