:100000000C942A000C943F000C943F000C943F0089
:100010000C943F000C943F000C943F000C943F0064
:100020000C943F000C943F000C943F000C943F0054
:100030000C943F000C943F000C943F000C943F0044
:100040000C943F000C943F000C943F000C943F0034
:100050000C943F0011241FBECFE5D8E0DEBFCDBF1A
:1000600010E0A0E6B0E0EEE3F2E002C005900D92F1
:10007000A038B107D9F70E94CE000C941D010C9452
:10008000000088B3877F88BB000000002FE788E36B
:1000900091E0215080409040E1F700C0000088B31B
:1000A000886088BB08958AB31ABA88B3846088BB15
:1000B00088B38D7F88BB0E9441008FEF8ABB88B3D5
:1000C0008B7F88BB0895CF93C82F0E945300CBBB72
:1000D00088B38B7F88BB0E944100CF910895CF9356
:1000E000C82F0E945300CBBBCBBB88B3826088BBB8
:1000F00088B38B7F88BB0E944100CF91089581E037
:100100000E94630008958FE39CE90197F1F700C016
:10011000000087B38E6087BB88B3817F88BB8FEF79
:100120008ABB8FE39CE90197F1F700C000000E94B1
:100130007F0088E30E94630086E00E94630080E8FD
:100140000E9463008FE00E94630008950F931F9345
:10015000CF93DF938C01C0E0D0E017C00F5F1F4F3B
:100160000E946F002196C031D10521F480EC0E94DD
:1001700063000BC0CE018097029738F40E947F0085
:1001800080E80E946300C0E0D0E0F8018081811126
:10019000E5CFDF91CF911F910F9108950E948300C9
:1001A0000E94E30080E690E00E94A6000E947F008B
:1001B00087E790E00E9410010E947F000E940C01DE
:1001C0000E946F00FBCF83E389B910BC80B58F7BA1
:1001D00080BD8BB18D7F8BB980B58F7E80BD80B5A2
:1001E0008F7D80BD80B5806880BD80B5877F80BDF4
:1001F00080B5846080BD80B5826080BD8AB18B7F10
:100200008AB98AB188608AB98AB180618AB9089549
:100210005D9BFECF8CB908955F9BFECF8CB1089596
:10022000CF93DF93EC0103C00E94080121968881DF
:0E0230008111FACFDF91CF910895F894FFCF9E
:10023E0075736172742077696C6C2073656E6420BF
:10024E00737472696E672042656E776166647900B9
:00000001FF
