:020000040800F2
:100000000028002091030008E1030008E103000834
:10001000E1030008E1030008E1030008000000001C
:10002000000000000000000000000000E1030008E4
:10003000E103000800000000E1030008E1030008FC
:10004000E1030008E1030008E1030008E103000800
:10005000E1030008E1030008E503000809040008C3
:100060002D0400085104000875040008E10300088D
:10007000E1030008E1030008E1030008E1030008D0
:10008000E1030008E1030008E1030008E1030008C0
:10009000E1030008E1030008E103000899040008F7
:1000A000E1030008E1030008E1030008E1030008A0
:1000B000E1030008E1030008E1030008E103000890
:1000C000E1030008E1030008E1030008790F0008DC
:1000D000D50F00083110000845100008591000081D
:1000E00041050008E103000800000000E1030008EA
:1000F000E1030008E1030008E1030008E103000850
:10010000E1030008E1030008E1030008E10300083F
:10011000E1030008E1030008E1030008E10300082F
:10012000E1030008E1030008E1030008E10300081F
:1001300010B5054C237833B9044B13B10448AFF321
:1001400000800123237010BD00000020000000008B
:10015000B410000808B5034B1BB103490348AFF3C3
:10016000008008BD0000000004000020B41000085A
:1001700080B58AB000AF40233B614FF48063FB60E1
:10018000094BBB6000233B6000237B6280237B61C3
:10019000064800F08BFC3B461946044800F066FB1D
:1001A00000BF2837BD4680BDA08601000054004036
:1001B00080B5C8B002AF07F58C73A3F586731860DD
:1001C00007F58C73A3F58873196007F58C73A3F298
:1001D00011131A70002387F8173107F58C73A3F5F4
:1001E00086731B681B0ADAB207F58C73A3F582735A
:1001F0001A7007F58C73A3F586731B68DAB207F5DE
:100200008C73A3F582735A70002387F8173115E0B9
:1002100097F81731023B07F58C72A2F588721268C5
:100220001A4497F81731117807F58C72A2F582728B
:10023000D15497F81731013387F8173107F58C73CC
:10024000A3F211131B785A1C97F817319A42DFDA80
:1002500007F58C73A3F211131B780233DBB207F19D
:10026000140200210191002100912A21044800F08C
:1002700067FC0023184607F58C77BD4680BD00BF9C
:100280000054004080B588B002AFF860B9601346F2
:10029000FB71FB681B0ADBB23B75FB68DBB27B754D
:1002A00007F11402002301930123009302232A2162
:1002B000084800F045FCFB790122019200220092DF
:1002C000BA682A21034800F091FC00231846183729
:1002D000BD4680BD0054004080B584B000AF00F042
:1002E0003DF8FFF745FF1C4A07F1080392E80300B9
:1002F00018600433198002330A0C1A7000233B6023
:100300003B1D00210A461A800A469A7007F108032D
:1003100007221946AF20FFF74BFF3B46072219463D
:10032000AF20FFF7AFFF0A233B720B237B720C2336
:10033000BB720D23FB7207F108030422194640F635
:10034000FF70FFF735FF3B460422194640F6FF7069
:10035000FFF798FFFEE700BFCC10000880B400AFA5
:100360000A4B9B69094A43F004039361074B9B695D
:10037000064A43F008039361044B9B69034A43F028
:100380000103936100BFBD4680BC7047001002406E
:100390000D488546AFF300800C480D490D4A0023F7
:1003A00002E0D458C4500433C4188C42F9D30A4A2A
:1003B0000A4C002301E013600432A242FBD300F098
:1003C00055FEFFF789FFFEE700280020000000200F
:1003D00000000020F410000800000020BC000020F5
:1003E000FEE7000080B500AF054B5B69044A43F0AF
:1003F00001035361034B1B68984700BF80BD00BFDA
:10040000000401401C00002080B500AF054B5B6973
:10041000044A43F002035361034B5B68984700BFF3
:1004200080BD00BF000401401C00002080B500AF6B
:10043000054B5B69044A43F004035361034B9B681B
:10044000984700BF80BD00BF000401401C00002091
:1004500080B500AF054B5B69044A43F00803536164
:10046000034BDB68984700BF80BD00BF000401401C
:100470001C00002080B500AF054B5B69044A43F0C7
:1004800010035361034B1B69984700BF80BD00BF39
:10049000000401401C00002080B500AF264B5B69C2
:1004A00003F02003002B08D0234B5B69224A43F062
:1004B00020035361214B5B6998471F4B5B6903F035
:1004C0004003002B08D01C4B5B691B4A43F04003E0
:1004D00053611A4B9B699847174B5B6903F0800384
:1004E000002B08D0144B5B69134A43F0800353611F
:1004F000124BDB699847104B5B6903F48073002B48
:1005000008D00D4B5B690C4A43F4807353610B4B6D
:100510001B6A9847084B5B6903F40073002B08D0F3
:10052000054B5B69044A43F400735361034B5B6AF8
:10053000984700BF80BD00BF000401401C000020A0
:1005400080B500AF2D4B5B6903F48063002B08D0AE
:100550002A4B5B69294A43F480635361284B9B6AA9
:100560009847264B5B6903F40063002B08D0234BAC
:100570005B69224A43F400635361214BDB6A98476D
:100580001E4B5B6903F48053002B08D01B4B5B6947
:100590001A4A43F480535361194B1B6B9847174B0E
:1005A0005B6903F40053002B08D0144B5B69134ABA
:1005B00043F400535361124B5B6B98470F4B5B69DD
:1005C00003F48043002B08D00C4B5B690B4A43F4C7
:1005D000804353610A4B9B6B9847084B5B6903F45C
:1005E0000043002B08D0054B5B69044A43F40043E9
:1005F0005361034BDB6B984700BF80BD0004014093
:100600001C00002080B483B000AF0346FB80FB8851
:10061000B3F5004F00F0A580B3F5004F00F3A380C1
:10062000B3F5804F00F09B80B3F5804F00F39B80C3
:10063000B3F5005F00F09180B3F5005F00F39380A5
:10064000B3F5805F00F08780B3F5805F00F38B80A7
:10065000B3F5006F7DD0B3F5006F00F38480B3F580
:10066000806F74D0B3F5806F7DDCB3F5007F6CD004
:10067000B3F5007F77DCB3F5807F64D0B3F5807F7E
:1006800071DC802B5DD0802B6DDC202B48DC002BB7
:1006900069DD013B1F2B66D801A252F823F000BF91
:1006A000270700082B070008670700082F07000826
:1006B0006707000867070008670700083307000896
:1006C0006707000867070008670700086707000852
:1006D0006707000867070008670700083707000872
:1006E0006707000867070008670700086707000832
:1006F0006707000867070008670700086707000822
:100700006707000867070008670700086707000811
:100710006707000867070008670700083B0700082D
:10072000402B0CD01FE000231EE004231CE0082314
:100730001AE00C2318E0102316E0142314E0182309
:1007400012E01C2310E000230EE004230CE0082339
:100750000AE00C2308E0102306E0142304E0182329
:1007600002E01C2300E0002318460C37BD4680BC85
:10077000704700BF80B584B000AF78603960002357
:10078000FB600023BB603B681B88FF2B02D87B68A3
:10079000FB6002E07B680433FB603B681B88184603
:1007A000FFF730FF03461A460F239340DA43FB68F6
:1007B0001B681A40FB681A603B689B78052B0BD0BE
:1007C0003B689B78042B07D03B689B78072B03D0B2
:1007D0003B689B78062B0AD13B689B78043B9B00C7
:1007E0003A68D278134303F00F03BB602BE03B68F9
:1007F0009B78012B03D03B689B78002B06D13B688C
:100800009B789B0003F00F03BB601CE03B689B7868
:10081000082B02D10423BB6015E00823BB603B68B2
:100820009B78022B07D17B68DB683A6812881A43F1
:100830007B68DA6007E07B68DB683A681288D2433D
:100840001A407B68DA603B681B881846FFF7DAFEBF
:1008500003461A46BB6803FA02F2FB681B681A4398
:10086000FB681A6000BF1037BD4680BDB0B586B0CA
:1008700000AF786039600023FB820023BB82824B8B
:100880003B617B68814A934212D1814A3B6814469E
:100890001D460FCD0FC40FCD0FC495E8030084E8AB
:1008A00003007C4BDB697B4A43F40013D36116E001
:1008B0007B68794A934212D1754B3A6803F1280458
:1008C00015460FCD0FC40FCD0FC495E8030084E883
:1008D0000300704BDB696F4A43F48003D3613B68CC
:1008E0001B68002B40F089807B685B68FB82FB8A79
:1008F00023F03F03FB8200F02BFB38613B69674A22
:10090000A2FB03239B0CBB82FA8ABB8A1343FB82A4
:10091000FA8A7B685A607B681B6823F001027B6857
:100920001A600023FB823B689B684CF25032934272
:1009300004D03B689B685A4A934212D13B689B683B
:100940005B003A69B2FBF3F3FB81FA8AFB8913433C
:10095000FB82FA8A7B68DA61BB8A01331A467B68BC
:100960001A627B681B68FB823B68DB689AB23B6853
:100970001B699BB213439AB23B685B699BB21343FA
:100980009AB23B681B689BB213439AB2FB8A13432B
:10099000FB827B681A68FB8A1A437B681A60002313
:1009A000FB823B689B69012B10D10123FB823B68D2
:1009B0005B7F5B001AB2B7F9163013431BB2FB82A0
:1009C0007B68DA68FB8A1A437B68DA600023FB8263
:1009D0003B681B7F5B001AB2B7F9163013431BB29A
:1009E000FB823B681B6A9AB2FB8A1343FB827B68DB
:1009F0009A68FB8A1A437B689A603B685B6A002BA3
:100A000038D07B685B6843F480727B685A607B688F
:100A10005B6843F480627B685A607B685B6843F480
:100A200000727B685A607B68184A93420CD11D4B58
:100A30001B681C4A43F0010313601B4B1B681A4AD6
:100A400043F0004313600FE07B68134A93420BD1DD
:100A5000144B1B68134A43F002031360114B1B68CD
:100A6000104A43F0040313607B6800225A617B68DC
:100A700000229A617B681B6843F001027B681A6060
:100A800000BF1837BD46B0BD00350C000054004013
:100A900058000020001002400058004083DE1B4335
:100AA000A086010004E100E000E100E080B584B030
:100AB00000AF78607B681F4A934218D14023BB8106
:100AC0000723BB730123FB7307F10C0319461A4874
:100AD000FFF750FE8023BB810723BB730123FB7309
:100AE00007F10C0319461448FFF744FE1DE07B682C
:100AF000124A934219D14FF48063BB810723BB7321
:100B00000123FB7307F10C0319460B48FFF732FE74
:100B10004FF40063BB810723BB730123FB7307F111
:100B20000C0319460448FFF725FE00BF1037BD46E9
:100B300080BD00BF00540040000C01400058004040
:100B400080B586B000AFF8607A601A460B467B81AC
:100B500013467B7200237B6197F8243001221946EB
:100B6000F86800F0C1F800BF0121F86800F03AF918
:100B70000346002BF8D07B8900221946F86800F064
:100B8000DAF800BF0221F86800F02CF90346002BC8
:100B9000F8D000BF0321F86800F024F90346002BC9
:100BA000F8D000237B6111E07B697A6813441B78DD
:100BB0001A46FB681A6100BF0321F86800F012F9B9
:100BC0000346002BF8D07B6901337B617B7A7A691D
:100BD0009A42E9DB97F82030002B03D10121F86815
:100BE00000F0C9F800BF1837BD4680BD80B586B09B
:100BF00000AFF8607A601A460B467B8113467B7221
:100C000000237B61FB68364A934214BF0123002313
:100C1000DBB2FB7497F8243001221946F86800F023
:100C200063F800BF0121F86800F0DCF80346002BF0
:100C3000F8D07B8901221946F86800F07CF800BFE3
:100C40000221F86800F0CEF80346002BF8D001210D
:100C5000F86800F0ABF87B7A002B1BD000237B6197
:100C600014E000BF0421F86800F0BCF80346002B34
:100C7000F8D0FB6819697B697A681344CAB21A70A4
:100C80007B6801337B607B6901337B617B7A7A69A6
:100C90009A42E6DB0021F86800F088F897F82030E7
:100CA000002B03D10121F86800F065F8FA7C0D49AA
:100CB00013469B001344DB000B440C331B68B3F555
:100CC000806F04D10121F86800F070F803E0002182
:100CD000F86800F06BF800BF1837BD4680BD00BF54
:100CE000005400405800002080B582B000AF78600A
:100CF0000B46FB701346BB70FB78012B07D000BF7F
:100D00000021786800F06EF80346002BF8D1BB781C
:100D1000002B06D07B681B6843F480727B681A60E6
:100D200005E07B681B6823F480727B681A6000BF53
:100D30000837BD4680BD80B483B000AF78600B46F5
:100D40007B8013467B707B78012B07D17B885B000F
:100D500043F001031A467B681A6107E07B78002B99
:100D600004D17B885B001A467B681A6100BF0C3790
:100D7000BD4680BC704780B483B000AF78600B463E
:100D8000FB70FB78012B06D17B681B6843F4007273
:100D90007B681A6005E07B681B6823F400727B683F
:100DA0001A6000BF0C37BD4680BC704780B483B06A
:100DB00000AF78600B46FB70FB78012B06D17B6897
:100DC0001B6843F480627B681A6005E07B681B68DF
:100DD00023F480627B681A6000BF0C37BD4680BC7C
:100DE0007047000080B487B000AF7860396000239E
:100DF0003B610023FB600023FB753B68042B0FD88D
:100E00003B68042B66D801A252F823F02B0E000891
:100E1000430E00085B0E0008730E00088B0E0008DE
:100E20003B68304A93423CD054E07B689B6903F0B6
:100E30000203002B02D00123FB754CE00023FB755D
:100E400049E07B685B6903F00103002B02D00123BA
:100E5000FB7540E00023FB753DE07B685B6903F0B8
:100E60000203002B02D00123FB7534E00023FB7545
:100E700031E07B685B6903F08003002B02D0012323
:100E8000FB7528E00023FB7525E07B685B6903F0B8
:100E90004003002B02D00123FB751CE00023FB75EF
:100EA00019E080233B610723FB607B685A693B693B
:100EB0001A407B689969FB680B401B041343BB60B5
:100EC000BA683B689A4202D10123FB7503E0002314
:100ED000FB7500E000BFFB7D18461C37BD4680BC9B
:100EE000704700BF8000070080B400AF0B4B5B6809
:100EF0009B0803F00303022B0AD0022B0AD8002B15
:100F000002D0012B02D005E0054B03E0054B01E0C8
:100F1000044BFFE71846BD4680BC704700100240F6
:100F200000127A000024F40080B500AFFFF7DCFF68
:100F30000246054B5B681B0903F00F030349CB5CBA
:100F400022FA03F3184680BD00100240DC100008AE
:100F500080B500AFFFF7E8FF0246054B5B681B0A50
:100F600003F007030349CB5C22FA03F3184680BD64
:100F700000100240D410000880B582B000AF134BBF
:100F80009B685B0803F00103DAB23B7962F300036C
:100F90003B710E4B9B6803F00103DAB23B7962F3BD
:100FA00041033B71094B9B681B0903F00103DAB253
:100FB0003B7962F382033B71054B1B685B693879AF
:100FC000984700BF0837BD4680BD00BF00300140D4
:100FD000A800002080B582B000AF134B9B685B086F
:100FE00003F00103DAB23B7962F300033B710E4B6D
:100FF0009B6803F00103DAB23B7962F341033B7172
:10100000094B9B681B0903F00103DAB23B7962F3D9
:1010100082033B71054B5B685B693879984700BF79
:101020000837BD4680BD00BF00380040A800002042
:1010300080B500AF024B1B685B69984700BF80BD5D
:10104000B000002080B500AF024B5B685B69984739
:1010500000BF80BDB000002080B500AF024B9B6890
:101060005B69984700BF80BDB000002070B50026C6
:101070000C4D0D4C641BA410A64209D100F01AF8C7
:1010800000260A4D0A4C641BA410A64205D170BD6F
:1010900055F8043B98470136EEE755F8043B98476E
:1010A0000136F2E7EC100008EC100008EC10000824
:1010B000F0100008F8B500BFF8BC08BC9E467047A9
:0C10C000F8B500BFF8BC08BC9E467047A5
:1010CC0001020304050607000000000001020304EE
:1010DC0000000000000000000102030406070809DC
:0410EC0055010008A2
:0410F00031010008C2
:04000005080003915B
:00000001FF
